:020000040800F2
:10000000005000207D1F0008211F0008271F000846
:100010002D1F0008331F0008391F000800000000D2
:100020000000000000000000000000003F1F00086A
:100030004B1F000800000000571F0008631F000846
:10004000C51F0008C51F0008C51F0008C51F000800
:10005000C51F0008C51F0008C51F0008C51F0008F0
:10006000C51F0008C51F0008C51F0008C51F0008E0
:10007000C51F0008C51F0008C51F0008C51F0008D0
:10008000C51F0008C51F0008C51F0008C51F0008C0
:10009000C51F0008C51F0008C51F0008C51F0008B0
:1000A000C51F0008C51F0008C51F0008C51F0008A0
:1000B000C51F0008C51F0008C51F0008C51F000890
:1000C000C51F0008C51F0008C51F0008C51F000880
:1000D000C51F0008C51F0008C51F0008C51F000870
:1000E000C51F0008C51F0008C51F0008000000004C
:1000F0000000000000000000000000000000000000
:0C01000000000000000000005FF808F1A3
:10010C0010B5054C237833B9044B13B10448AFF345
:10011C0000800123237010BD30000020000000007F
:10012C00083B000808B5034B1BB103490348AFF368
:10013C00008008BD0000000034000020083B0008CF
:10014C0080B485B000AF78607B681B68FB60FB688F
:10015C0018461437BD4680BC7047000080B582B08D
:10016C0000AF0A48FFF7ECFF78607B68B3F1FF3F04
:10017C0002D100F00DF804E07B68002B01D100F0F7
:10018C00C7F800BF0837BD4680BD00BF00FC0108A2
:10019C0080B586B000AF2748FFF7D2FF78616FF0CB
:1001AC000C033B61244BFB602448FFF7C9FFB8608C
:1001BC002348FFF7C5FF7860BB689B081A46F968AF
:1001CC00204802F072FC38607B6913F10F0F0ED1DE
:1001DC003A687B689A4202D100F070F825E06FF023
:1001EC000B01144800F094F900F086FE1DE07B69C9
:1001FC0013F10C0F03D07B69B3F1FF3F15D100F065
:10020C0023F838613B6913F10E0F04D100F088F824
:10021C0000F054F809E03B6913F10C0F03D03B6973
:10022C00B3F1FF3F01D100F009FA00BF1837BD460A
:10023C0080BD00BF14FC01080050000818FC010828
:10024C001CFC01087400002080B586B000AF164875
:10025C00FFF776FF7861154B3B611548FFF770FF90
:10026C00F8601448FFF76CFFB860FB689B081A46EF
:10027C003969114802F019FC78607B6913F10D0F94
:10028C000ED17A68BB689A4202D16FF00D0307E079
:10029C006FF00B01044800F03BF96FF00B03FFE724
:1002AC0018461837BD4680BD34FC010800A800086C
:1002BC0038FC01083CFC01087400002080B582B0B9
:1002CC0000AF0E4B00221A6001F08EFE0C4B002288
:1002DC009A6000237B600B4B1B687B60BFF35F8FC6
:1002EC0000BF094B094A9A60BFF34F8F00BF7B6870
:1002FC00984700BF0837BD4680BD00BF10E000E046
:10030C00001002400450000800ED00E0005000080E
:10031C0080B500AF00F09EF900F0FCF900BF80BD85
:10032C00B0B58CB000AF0023BB6200237B6200230E
:10033C003B623148FFF704FFF861304BBB61FB694E
:10034C009B08FB61FA69B9692D4802F0AEFB786134
:10035C0000237B600123BB602A4BFB6016233B61AF
:10036C0002F046FC3A463B1D1146184602F028FDA9
:10037C0002F064FC02F03CFC0023FB621DE0FB6A13
:10038C0003F1007303F5A0539B007B62FB6A03F13E
:10039C00007303F528539B00BB62BB6A1B683B626E
:1003AC003B6A00221C46154622462B46796A0220DF
:1003BC0002F0AEFBFB6A0133FB62FA6AFB699A42FC
:1003CC00DDD302F03BFCFB699B0019460E4800F0A4
:1003DC009FF879690D4800F09BF86FF00E010C48FE
:1003EC0000F096F86FF00C010A4800F091F800BF8D
:1003FC003037BD46B0BD00BF38FC010800A800086E
:10040C00740000200050000818FC01081CFC0108B6
:10041C0014FC010834FC0108B0B58CB000AF00230B
:10042C00BB6200237B6200233B623148FFF788FEEE
:10043C00F861304BBB61FB699B08FB61FA69B969D8
:10044C002D4802F032FB786100237B600123BB60F6
:10045C002A4BFB6016233B6102F0CAFB3A463B1D5C
:10046C001146184602F0ACFC02F0E8FB02F0C0FBAF
:10047C000023FB621DE0FB6A03F1007303F5A0533C
:10048C009B007B62FB6A03F1007303F528539B000E
:10049C00BB627B6A1B683B623B6A00221C461546AA
:1004AC0022462B46B96A022002F032FBFB6A01336A
:1004BC00FB62FA6AFB699A42DDD302F0BFFBFB696F
:1004CC009B0019460E4800F023F879690D4800F09E
:1004DC001FF86FF00E010C4800F01AF86FF00C01C9
:1004EC000A4800F015F800BF3037BD46B0BD00BF5C
:1004FC0018FC0108005000087400002000A8000837
:10050C0038FC01083CFC010814FC010834FC01080F
:10051C002DE9B043B2B000AF786039600023A7F882
:10052C00C6300023A7F8C4300023C7F8C030414BB5
:10053C00C7F8C03031E0D7F8C0207B689A4214BFAE
:10054C0001230023DAB2D7F8C0301B68B3F1FF3FA8
:10055C0014BF01230023DBB21340DBB2002B17D0F6
:10056C00B7F8C6309B00C8333B44D7F8C02043F8DB
:10057C00582CD7F8C020B7F8C63012689B00C83387
:10058C003B4443F8A82CB7F8C6300133A7F8C63063
:10059C00D7F8C0300433C7F8C030D7F8C030264A7B
:1005AC009342C8D900233B6101237B61214BBB6182
:1005BC000123FB6102F01CFB07F10C0207F1100395
:1005CC001146184602F0FCFB0023A7F8C4301AE0D1
:1005DC00B7F8C4309B00C8333B4453F8581CB7F8E9
:1005EC00C4309B00C8333B4453F8A83C00229846C7
:1005FC00914642464B46022002F08AFAB7F8C430C4
:10060C000133A7F8C430B7F8C420B7F8C6309A4203
:10061C00DED33B6800221C46154622462B467968E1
:10062C00022002F075FA02F009FB00BFC837BD4684
:10063C00BDE8B08300FC01084FFC010880B500AF99
:10064C0000210348FFF764FF00F056FC00BF80BD9B
:10065C0000FC010880B586B000AF00237B6000234E
:10066C00BB6000237B6100233B610023FB60002304
:10067C00FB702448FFF764FD78615021102000F0D6
:10068C0055FCFB1C184600F089FCFB78342B35D14B
:10069C007321102000F04AFC3B1D184600F0A0FC12
:1006AC00FB791A06BB791B041A437B791B02134393
:1006BC003A7913433B61FB7A1A06BB7A1B041A4343
:1006CC007B7A1B0213433A7A1343FB607B6913F169
:1006DC000F0F01D1FFF7A0FE6FF00B010948FFF7D8
:1006EC0017FF39690848FFF713FFF9680748FFF748
:1006FC000FFF4FF0FF310648FFF70AFF00BF183716
:10070C00BD4680BD14FC010818FC01081CFC010846
:10071C0000FC01082DE9F04FADF53B7D00AF002347
:10072C00C7F8C03207F53172002313605360936031
:10073C004FF000024FF00003C7E9B6234FF0000260
:10074C004FF00003C7E9B423174BC7F8E43217483E
:10075C00FFF7F6FCC7F8E002002387F8BF3207F575
:10076C00FE73134A1349184600F07EFD0023C7F8A8
:10077C00EC310123C7F8F0310B4BC7F8F4311623D9
:10078C00C7F8F83102F034FA07F5F47207F5F6738E
:10079C001146184602F014FB02F050FA7421102096
:1007AC0000F0C4FB7AE300BF0050000818FC0108FD
:1007BC00100000200000002007F2BF23184600F0B4
:1007CC00EDFB97F8BF32362B40F068837521102073
:1007DC0000F0ACFBD7F8E032102B40F2C38107F5E8
:1007EC0030731021184600F02BFC07F5307107F51B
:1007FC00FE731022184601F0ADF997F8C732DBB240
:10080C000022C7F8A031C7F8A4214FF000004FF028
:10081C000001D7F8A0311906002097F8C632DBB2D8
:10082C000022C7F89831C7F89C214FF000024FF016
:10083C000003D7F898613304002240EA0206C7F897
:10084C0090610B43C7F8943197F8C532DBB20022A4
:10085C00C7F88831C7F88C214FF000024FF0000325
:10086C00D7F888110B020022D7E96401064616431B
:10087C00C7F880610B43C7F8843197F8C432DBB2F8
:10088C000022C7F87831C7F87C214FF000024FF0F6
:10089C000003D7F878110B000022D7E96001064657
:1008AC001643C7F870610B43C7F8743197F8C3321D
:1008BC00DBB20022C7F86831C7F86C21D7E95A12AD
:1008CC000B461B0AC7F864310B461B06C7F8603190
:1008DC00D7E95C010646D7E95823944646EA0C064C
:1008EC00C7F858610B43C7F85C3197F8C232DBB2DA
:1008FC000022C7F8E031C7F8E4214FF000024FF0B6
:10090C000003D7F8E4110B04D7E97801064643EA53
:10091C00164301460A04D7E9560106461643C7F8A2
:10092C0050610B43C7F8543197F8C132DBB2002247
:10093C00C7F8D831C7F8DC214FF000024FF00003A4
:10094C00D7F8DC110B02D7E97601064643EA1663A9
:10095C0001460A02D7E9540106461643C7F8486116
:10096C000B43C7F84C3197F8C032DBB20022C7F802
:10097C004031C7F84421D7E952010646D7E9502344
:10098C00944646EA0C06BE610B43FB61D7E906238D
:10099C00C7E9B62397F8CF32DBB20022C7F838315B
:1009AC00C7F83C214FF000004FF00001D7F8383168
:1009BC001906002097F8CE32DBB20022C7F830318E
:1009CC00C7F834214FF000024FF00003D7F8306124
:1009DC003304002240EA0206C7F828610B43C7F82B
:1009EC002C3197F8CD32DBB20022C7F82031C7F892
:1009FC0024214FF000024FF00003D7F820110B0216
:100A0C000022D7E94A0106461643C7F818610B4382
:100A1C00C7F81C3197F8CC32DBB20022C7F8103182
:100A2C00C7F814214FF000024FF00003D7F8101153
:100A3C000B000022D7E9460106461643C7F80861A9
:100A4C000B43C7F80C3197F8CB32DBB20022C7F856
:100A5C000031C7F80421D7E940120B461B0AC7F82E
:100A6C00FC300B461B06C7F8F830D7E942010646A6
:100A7C00D7E93E23944646EA0C06C7F8F0600B43D0
:100A8C00C7F8F43097F8CA32DBB20022C7F8D0317D
:100A9C00C7F8D4214FF000024FF00003D7F8D4115F
:100AAC000B04D7E97401064643EA164301460A04CF
:100ABC00D7E93C0106461643C7F8E8600B43C7F874
:100ACC00EC3097F8C932DBB20022C7F8C831C7F84E
:100ADC00CC214FF000024FF00003D7F8CC110B02E1
:100AEC00D7E97201064643EA166301460A02D7E9C2
:100AFC003A01064646EA020841EA030997F8C83269
:100B0C00DBB20022C7F8E030C7F8E420D7E938237D
:100B1C00114648EA0101396149EA03037B61D7E9CF
:100B2C000423C7E9B42302F063F8D7E9B623D7F856
:100B3C00E412032001F0ECFFD7F8E43203F10801D2
:100B4C00D7E9B423032001F0E3FF02F077F8D7F8DC
:100B5C00E4321033C7F8E432D7F8E032103BC7F870
:100B6C00E03297E107F530731021184600F068FA6F
:100B7C0007F5307107F5FE731022184600F0EAFFF6
:100B8C0097F8C732DBB20022C7F8D830C7F8DC20A0
:100B9C004FF000004FF00001D7F8D83019060020B4
:100BAC0097F8C632DBB20022C7F8D030C7F8D42091
:100BBC004FF000024FF00003D7F8D060330400224E
:100BCC0040EA0206C7F8C8600B43C7F8CC3097F868
:100BDC00C532DBB20022C7F8C030C7F8C4204FF0D2
:100BEC0000024FF00003D7F8C0100B020022D7E927
:100BFC00320106461643C7F8B8600B43C7F8BC3041
:100C0C0097F8C432DBB20022C7F8B030C7F8B42072
:100C1C004FF000024FF00003D7F8B0100B00002289
:100C2C00D7E92E0106461643C7F8A8600B43C7F850
:100C3C00AC3097F8C332DBB20022C7F8A030C7F84B
:100C4C00A420D7E928120B461B0AC7F89C300B4688
:100C5C001B06C7F89830D7E92A010646D7E92623A0
:100C6C00944646EA0C06C7F890600B43C7F89430DC
:100C7C0097F8C232DBB20022C7F8C031C7F8C421E2
:100C8C004FF000024FF00003D7F8C4110B04D7E962
:100C9C007001064643EA164301460A04D7E92401CB
:100CAC0006461643C7F888600B43C7F88C3097F894
:100CBC00C132DBB20022C7F8B831C7F8BC214FF003
:100CCC0000024FF00003D7F8BC110B02D7E96E01FC
:100CDC00064643EA166301460A02D7E92201064694
:100CEC001643C7F880600B43C7F8843097F8C032BE
:100CFC00DBB20022BB67FA67D7E920010646D7E9C9
:100D0C001E23944646EA0C06BE600B43FB60D7E9F3
:100D1C000223C7E9B62397F8CF32DBB200223B6738
:100D2C007A674FF000004FF000013B6F190600206E
:100D3C0097F8CE32DBB20022BB66FA664FF00002A7
:100D4C004FF00003BE6E3304002240EA02063E66FA
:100D5C000B437B6697F8CD32DBB20022BB65FA659C
:100D6C004FF000024FF00003B96D0B020022D7E9DF
:100D7C001801064616433E650B437B6597F8CC324B
:100D8C00DBB20022BB64FA644FF000024FF00003A8
:100D9C00B96C0B000022D7E91401064616433E64D9
:100DAC000B437B6497F8CB32DBB20022BB63FA6354
:100DBC00D7E90E120B461B0A7B630B461B063B63E3
:100DCC00D7E910010646D7E90C23944646EA0C06EF
:100DDC00BE620B43FB6297F8CA32DBB20022C7F843
:100DEC00B031C7F8B4214FF000024FF00003D7F830
:100DFC00B4110B04D7E96C01064643EA16430146CD
:100E0C000A04D7E90A01064646EA020A41EA030B3C
:100E1C0097F8C932DBB20022C7F8A831C7F8AC2169
:100E2C004FF000024FF00003D7F8AC110B02D7E9DA
:100E3C006A01064643EA166301460A024AEA0204BC
:100E4C004BEA030597F8C832DBB200223B627A62A8
:100E5C00D7E908231146214339602B437B60D7E93E
:100E6C000023C7E9B42301F0C3FED7E9B623D7F8B2
:100E7C00E412032001F04CFED7F8E43203F1080130
:100E8C00D7E9B423032001F043FE01F0D7FE002381
:100E9C00C7F8E0327621102000F048F8D7F8E0329D
:100EAC00002B7FF489AC07F2BF23184600F076F8CC
:100EBC0097F8BF32372B01D100F006F800BF07F5C9
:100ECC003B77BD46BDE8F08F80B500AF7721102091
:100EDC0000F02CF86FF00E010548FFF719FB4FF0EE
:100EEC00FF310448FFF714FB00F006F800BF80BD8B
:100EFC0014FC010800FC010880B500AF094B0A4A3C
:100F0C001A60084B00225A60064B09229A60054869
:100F1C0002F09AF90346002B01D000F069FF00BFE4
:100F2C0080BD00BF7C0000200030004080B584B044
:100F3C0000AF03460A46FB711346BB71FB79012BCC
:100F4C0002D15023FB7307E0FB79022B02D1602303
:100F5C00FB7301E0FB79FB730C4B00229A600B4B8B
:100F6C000022DA60FB7B094A1360084B01221A61EC
:100F7C00074ABB791370074B054A0449064801F030
:100F8C00A5FA034618461037BD4680BDB0000020B8
:100F9C00E4000020F40000204C00002080B582B05A
:100FAC0000AF786000BF0B4B1B68DB6803F00303DA
:100FBC00002BF8D0084B094A0021064801F055FBDC
:100FCC00054B1A787B681A70002318460837BD4603
:100FDC0080BD00BF4C000020EC000020C8000020A9
:100FEC0080B584B000AF786000BF124B1B68DB6823
:100FFC0003F00303002BF8D00F4B104A00210D48CF
:10100C0001F033FB0823BB730023FB7309E0FA7B6D
:10101C00FB7B79680B4408498A5C1A70FB7B0133B3
:10102C00FB73FA7BBB7B9A42F1D300231846103733
:10103C00BD4680BD4C000020EC000020C800002004
:10104C0080B584B000AF786039603B68DB08BB8149
:10105C007B68002B01D101232CE00023FB7323E0E0
:10106C0000BF164B1B68DB6803F00303002BF8D0A2
:10107C00134B144A0021114801F0F7FA0023BB73FB
:10108C0009E0BA7BBB7B79680B440D498A5C1A700A
:10109C00BB7B0133BB73BB7B072BF2D97B6808335B
:1010AC007B60FB7B0133FB73FB7B9BB2BA899A425F
:1010BC00D6D8002318461037BD4680BD4C00002002
:1010CC00EC000020C800002080B489B000AF78602C
:1010DC0039600023FB6130E0FB699B003A681A44DD
:1010EC00FB699B0079680B4412781A70FB699B00B2
:1010FC0001333A681A44FB699B00013379680B444D
:10110C0012781A70FB699B0002333A681A44FB6927
:10111C009B00023379680B4412781A70FB699B00B0
:10112C0003333A681A44FB699B00033379680B4418
:10113C0012781A70FB690133FB61FB69032BCBD965
:10114C000423FB6181E0FB69013B9B00BB617A6876
:10115C00BB6913441B783B73BB6901337A68134436
:10116C001B787B73BB6902337A6813441B78BB739F
:10117C00BB6903337A6813441B78FB73FB6903F078
:10118C000303002B25D13B7BFB757B7B3B73BB7B2C
:10119C007B73FB7BBB73FB7DFB733B7B1A46304B3A
:1011AC009B5C3B737B7B1A462D4B9B5C7B73BB7BA5
:1011BC001A462B4B9B5CBB73FB7B1A46284B9B5CE8
:1011CC00FB733A7BFB699B082649CB5C5340DBB233
:1011DC003B73FB699B003B61FB69043B9B00BB6160
:1011EC007A68BB69134419783A7B78683B69034485
:1011FC004A40D2B21A70BB6901337A681344197829
:10120C007A7B3B690133786803444A40D2B21A7046
:10121C00BB6902337A6813441978BA7B3B69023391
:10122C00786803444A40D2B21A70BB6903337A68B7
:10123C0013441978FA7B3B690333786803444A40BA
:10124C00D2B21A70FB690133FB61FB692B2B7FF661
:10125C007AAF00BF00BF2437BD4680BC704700BFCB
:10126C00203B0008203D000880B584B000AFF8603A
:10127C00B9607A60FB68B9681846FFF725FFFB6810
:10128C00B03310227968184602F02AFC00BF1037E0
:10129C00BD4680BD80B487B000AF0346B9607A60AC
:1012AC00FB730023FB7527E00023BB751EE0FA7D62
:1012BC00BB7DB96892000A4413441878FB7B9A00F2
:1012CC00FB7D13449A00BB7D13441A467B68134480
:1012DC001978FA7DBB7D4140C8B2B96892000A44C6
:1012EC00134402461A70BB7D0133BB75BB7D032BC7
:1012FC00DDD9FB7D0133FB75FB7D032BD4D900BFFE
:10130C0000BF1C37BD4680BC704780B483B000AFB3
:10131C000346FB71FB795B005AB2FB79DB09DBB24C
:10132C00194649000B441946C800194603460B449C
:10133C00DBB25BB253405BB2DBB218460C37BD4636
:10134C0080BC7047B0B584B000AF78600023FB6000
:10135C003BE37B68FA6813F82230FB727A68FB680F
:10136C009B0013445B78BB727A68FB689B00134448
:10137C009B787B727A68FB689B001344DB783B722A
:10138C00FB7A1846FFF7C1FF03461846FFF7BDFF6F
:10139C0003461846FFF7B9FF03461846FFF7B5FF9B
:1013AC00BB7A1846FFF7B1FF03461846FFF7ADFFAF
:1013BC00BB7A1846FFF7A9FF03461846FFF7A5FFAF
:1013CC0003461846FFF7A1FF03461846FFF79DFF9B
:1013DC007B7A1846FFF799FF7B7A1846FFF795FF43
:1013EC0003461846FFF791FF03461846FFF78DFF9B
:1013FC0003461846FFF789FF3B7A1846FFF785FF2F
:10140C003B7A1846FFF781FF03461846FFF77DFF2E
:10141C003B7A1846FFF779FF03461846FFF775FF2E
:10142C0003461846FFF771FF03461846FFF76DFF9A
:10143C00FB7A1846FFF769FF03461C46FB7A1846F1
:10144C00FFF763FF03461846FFF75FFF0346634051
:10145C00DCB2FB7A1846FFF758FF03461846FFF735
:10146C0054FF03461846FFF750FF03466340DCB2B7
:10147C00BB7A1846FFF749FF03461A46BB7A53401E
:10148C00DDB2BB7A1846FFF740FF03461846FFF75C
:10149C003CFF03461846FFF738FF03466B40DBB2B0
:1014AC006340DCB27B7A1846FFF72FFF03461846E1
:1014BC00FFF72BFF03461A467B7A5340DDB27B7A4B
:1014CC001846FFF722FF03461846FFF71EFF034698
:1014DC001846FFF71AFF03466B40DBB26340DCB2E1
:1014EC003B7A1846FFF711FF03461846FFF70DFF2E
:1014FC0003461846FFF709FF03461A463B7A53404A
:10150C00DBB26340D9B27B68FA6803F82210FB7A2D
:10151C001846FFF7FAFEFB7A1846FFF7F6FE03466D
:10152C001846FFF7F2FEFB7A1846FFF7EEFE03466D
:10153C001846FFF7EAFE03461846FFF7E6FE034699
:10154C001846FFF7E2FEBB7A1846FFF7DEFE0346AD
:10155C001846FFF7DAFE03461846FFF7D6FE034699
:10156C001846FFF7D2FE7B7A1846FFF7CEFE0346ED
:10157C001846FFF7CAFE7B7A1846FFF7C6FE0346ED
:10158C001846FFF7C2FE03461846FFF7BEFE034699
:10159C001846FFF7BAFE3B7A1846FFF7B6FE3B7AC1
:1015AC001846FFF7B2FE03461846FFF7AEFE034699
:1015BC001846FFF7AAFE03461846FFF7A6FEFB7A6D
:1015CC001846FFF7A2FE03461846FFF79EFE034699
:1015DC001846FFF79AFE03461A46FB7A5340DCB2D4
:1015EC00BB7A1846FFF791FE03461D46BB7A184698
:1015FC00FFF78BFE03461846FFF787FE03466B404A
:10160C00DDB2BB7A1846FFF780FE03461846FFF79B
:10161C007CFE03461846FFF778FE03466B40DBB2B0
:10162C006340DCB27B7A1846FFF76FFE03461A461E
:10163C007B7A5340DDB27B7A1846FFF766FE034691
:10164C001846FFF762FE03461846FFF75EFE034698
:10165C006B40DBB26340DCB23B7A1846FFF755FEB9
:10166C0003461846FFF751FE03461A463B7A534091
:10167C00DDB23B7A1846FFF748FE03461846FFF7E3
:10168C0044FE03461846FFF740FE03466B40DBB2B0
:10169C006340D9B27A68FB689B0013440A465A70BF
:1016AC00FB7A1846FFF731FEFB7A1846FFF72DFE42
:1016BC0003461846FFF729FE03461846FFF725FE9A
:1016CC0003461846FFF721FEBB7A1846FFF71DFEAE
:1016DC00BB7A1846FFF719FE03461846FFF715FEAE
:1016EC00BB7A1846FFF711FE03461846FFF70DFEAE
:1016FC0003461846FFF709FE03461846FFF705FE9A
:10170C007B7A1846FFF701FE03461846FFF7FDFDEE
:10171C0003461846FFF7F9FD03461846FFF7F5FD9B
:10172C003B7A1846FFF7F1FD03461846FFF7EDFD2F
:10173C003B7A1846FFF7E9FD03461846FFF7E5FD2F
:10174C0003461846FFF7E1FD03461846FFF7DDFD9B
:10175C00FB7A1846FFF7D9FD03461846FFF7D5FD6F
:10176C0003461A46FB7A5340DCB2FB7A1846FFF765
:10177C00CCFD03461846FFF7C8FD03461846FFF795
:10178C00C4FD03466340DCB2BB7A1846FFF7BDFDCF
:10179C0003461846FFF7B9FD03461846FFF7B5FD9B
:1017AC0003461A46BB7A5340DBB26340DCB27B7A09
:1017BC001846FFF7AAFD03461D467B7A1846FFF72D
:1017CC00A4FD03461846FFF7A0FD03466B40DDB2AF
:1017DC007B7A1846FFF799FD03461846FFF795FDEF
:1017EC0003461846FFF791FD03466B40DBB263409E
:1017FC00DCB23B7A1846FFF788FD03461A463B7A63
:10180C005340DDB23B7A1846FFF77FFD034618467E
:10181C00FFF77BFD03461846FFF777FD03466B4049
:10182C00DBB26340D9B27A68FB689B0013440A466A
:10183C009A70FB7A1846FFF768FD03461846FFF7C7
:10184C0064FDFB7A1846FFF760FD03461846FFF768
:10185C005CFD03461846FFF758FD03461846FFF794
:10186C0054FDBB7A1846FFF750FDBB7A1846FFF7BC
:10187C004CFD03461846FFF748FD03461846FFF794
:10188C0044FD03461846FFF740FD7B7A1846FFF7E8
:10189C003CFD7B7A1846FFF738FD03461846FFF7E8
:1018AC0034FD7B7A1846FFF730FD03461846FFF7E8
:1018BC002CFD03461846FFF728FD03461846FFF794
:1018CC0024FD3B7A1846FFF720FD03461846FFF728
:1018DC001CFD03461846FFF718FD03461846FFF794
:1018EC0014FDFB7A1846FFF710FD03461A46FB7AE7
:1018FC005340DCB2FB7A1846FFF707FD0346184647
:10190C00FFF703FD03461846FFF7FFFC0346634051
:10191C00DCB2BB7A1846FFF7F8FC03461846FFF713
:10192C00F4FC03461A46BB7A5340DDB2BB7A184628
:10193C00FFF7EBFC03461846FFF7E7FC0346184697
:10194C00FFF7E3FC03466B40DBB26340DCB27B7A0F
:10195C001846FFF7DAFC03461846FFF7D6FC034699
:10196C001846FFF7D2FC03461A467B7A5340DBB28B
:10197C006340DCB23B7A1846FFF7C7FC03461D46B2
:10198C003B7A1846FFF7C1FC03461846FFF7BDFC2F
:10199C0003466B40DDB23B7A1846FFF7B6FC0346B4
:1019AC001846FFF7B2FC03461846FFF7AEFC034699
:1019BC006B40DBB26340D9B27A68FB689B0013447E
:1019CC000A46DA70FB680133FB60FB68032B7FF778
:1019DC00C0AC00BF00BF1037BD46B0BD80B485B0F1
:1019EC0000AF78600023FB731DE00023BB7314E091
:1019FC00BA7BFB7B796892000A4413441B78184627
:101A0C00BA7BFB7B0C49085C796892000A4413444E
:101A1C0002461A70BB7B0133BB73BB7B032BE7D92C
:101A2C00FB7B0133FB73FB7B032BDED900BF00BFB9
:101A3C001437BD4680BC7047203C000880B485B08C
:101A4C0000AF78607B685B7BFB737B685A7A7B6842
:101A5C005A737B685A797B685A727B685A787B68B0
:101A6C005A717B68FA7B5A707B689B78FB737B6836
:101A7C009A7A7B689A707B68FA7B9A727B689B79FE
:101A8C00FB737B689A7B7B689A717B68FA7B9A7391
:101A9C007B68DB78FB737B68DA797B68DA707B6850
:101AAC00DA7A7B68DA717B68DA7B7B68DA727B685E
:101ABC00FA7BDA7300BF1437BD4680BC704780B523
:101ACC0084B000AF786039600023FB733A687968A2
:101ADC000A20FFF7DFFB0923FB737868FFF7AEFFE3
:101AEC007868FFF77BFFFB7B3A6879681846FFF74D
:101AFC00D1FBFB7B002B06D07868FFF723FCFB7B2C
:101B0C00013BFB73E9E700BF00BF1037BD4680BD4A
:101B1C0080B485B000AF786039600023FB7310E0AF
:101B2C00FB7B7A6813441978FB7B3A6813441A7868
:101B3C00FB7B786803444A40D2B21A70FB7B0133BA
:101B4C00FB73FB7B0F2BEBD900BF00BF1437BD46DB
:101B5C0080BC7047B0B58AB000AFF860B9607A60ED
:101B6C0000237B6222E0BB6807F1140418685968F3
:101B7C009A68DB680FC4FB681946B868FFF79FFFCB
:101B8C00FB68B0331946B868FFF7C2FFFB68B03387
:101B9C001D4607F114040FCC28606960AA60EB6045
:101BAC00BB681033BB607B6A10337B627A6A7B68DC
:101BBC009A42D8D300BF00BF2837BD46B0BD000045
:101BCC0080B500AF00F0FAF900F00EF800F0C4F8A0
:101BDC0000F052F800F0ACF8024800F033FCFEF7CD
:101BEC00BDFAFEE74C00002080B590B000AF07F1C5
:101BFC00180328220021184601F046FF3B1D002245
:101C0C001A605A609A60DA601A610923BB614FF45A
:101C1C008033FB6100233B620123BB6201233B63E6
:101C2C0002237B634FF48033BB634FF4E013FB63FD
:101C3C0007F11803184601F049FB0346002B01D0AD
:101C4C0000F0D6F80F237B600223BB600023FB60FF
:101C5C004FF480633B6100237B613B1D02211846DE
:101C6C0001F0B6FD0346002B01D000F0C1F800BF17
:101C7C004037BD4680BD000080B500AF294B2A4AD5
:101C8C001A60284B04225A60264B00229A60254B7E
:101C9C000022DA60234B4FF460221A61214B4FF47F
:101CAC0080125A611F4B00221A761E4B00225A7664
:101CBC001C4B00229A761B4B0022DA76194B002221
:101CCC001A77184B00225A77164800F0F7F903469A
:101CDC00002B01D000F08CF8144B01221A62134B2C
:101CEC0000225A61114B00221A61104B4FF42062F2
:101CFC001A600E4B00225A600C4B4FF420629A6013
:101D0C000A4B0022DA60094B01229A61074B01222F
:101D1C00DA61064B0A225A620449024800F0C9FAF9
:101D2C0000BF80BD4C0000200064004088000020F3
:101D3C0080B500AF064B074A1A60054800F099FEC3
:101D4C000346002B01D000F053F800BF80BD00BF4C
:101D5C00740000200030024080B588B000AF07F15D
:101D6C00100300221A605A609A60DA601E4B9B695D
:101D7C001D4A43F0100393611B4B9B6903F0100346
:101D8C00FB60FB68184B9B69174A43F02003936177
:101D9C00154B9B6903F02003BB60BB68124B9B691E
:101DAC00114A43F0040393610F4B9B6903F0040346
:101DBC007B607B6800224FF400510C4801F02CFA38
:101DCC004FF400533B6101237B610023BB61022371
:101DDC00FB6107F110031946044801F099F800BFA4
:101DEC002037BD4680BD00BF0010024000100140EE
:101DFC0080B400AF72B600BFFEE7000080B483B0C1
:101E0C0000AF0E4B9B690D4A43F0010393610B4BE2
:101E1C009B6903F001037B607B68084BDB69074A15
:101E2C0043F08053D361054BDB6903F080533B6077
:101E3C003B6800BF0C37BD4680BC704700100240A9
:101E4C0080B588B000AF786007F1100300221A60EB
:101E5C005A609A60DA607B681B681C4A934231D1E5
:101E6C001B4BDB691A4A43F00073D361184BDB69D7
:101E7C0003F00073FB60FB68154B9B69144A43F03D
:101E8C0004039361124B9B6903F00403BB60BB68B2
:101E9C004FF400633B6100237B610023BB6107F1BE
:101EAC00100319460B4801F033F84FF480533B6193
:101EBC0002237B610323FB6107F1100319460548DC
:101ECC0001F026F800BF2037BD4680BD00640040FD
:101EDC00001002400008014080B485B000AF78606B
:101EEC007B681B68094A93420BD1094B5B69084A12
:101EFC0043F040035361064B5B6903F04003FB6006
:101F0C00FB6800BF1437BD4680BC704700300240F0
:101F1C000010024080B400AFFEE780B400AFFEE7D3
:101F2C0080B400AFFEE780B400AFFEE780B400AF32
:101F3C00FEE780B400AF00BFBD4680BC704780B4E4
:101F4C0000AF00BFBD4680BC704780B400AF00BF7F
:101F5C00BD4680BC704780B500AF00F093F800BF61
:101F6C0080BD80B400AF00BFBD4680BC7047000090
:101F7C00FFF7F7FF0B480C490C4A002302E0D4583A
:101F8C00C4500433C4188C42F9D3094A094C0023B9
:101F9C0001E013600432A242FBD301F07DFDFFF798
:101FAC000FFE7047000000202C000020583D000858
:101FBC003000002020010020FEE7000080B500AFBB
:101FCC00084B1B68074A43F010031360032000F012
:101FDC001DFD0F2000F026F8FFF710FF0023184618
:101FEC0080BD00BF0020024080B500AF094B4FF010
:101FFC00FF321A61074B00221A61064B4FF0FF3279
:10200C00DA60044B0022DA6000F006F80023184670
:10201C0080BD00BF0010024080B400AF00BFBD46C1
:10202C0080BC704780B582B000AF7860124B1A68E4
:10203C00124B1B7819464FF47A73B3FBF1F3B2FBD6
:10204C00F3F3184600F009FD0346002B01D00123E1
:10205C000EE07B680F2B0AD8002279684FF0FF3016
:10206C0000F0DFFC064A7B681360002300E00123CC
:10207C0018460837BD4680BD2000002028000020EF
:10208C002400002080B400AF054B1B781A46054B8A
:10209C001B681344034A136000BFBD4680BC7047E5
:1020AC0028000020F800002080B400AF024B1B6811
:1020BC001846BD4680BC7047F800002080B584B03F
:1020CC0000AF78607B68002B01D10123EDE07B68C9
:1020DC0093F82030DBB2002B02D17868FFF7B0FE0A
:1020EC007B681B681A687B681B6842F001021A60E7
:1020FC00FFF7DAFFF86012E0FFF7D6FF0246FB6845
:10210C00D31A0A2B0BD97B685B6A43F400327B68C9
:10211C005A627B68052283F820200123C5E07B6886
:10212C001B685B6803F00103002BE5D07B681B6820
:10213C001A687B681B6822F002021A60FFF7B4FF72
:10214C00F86012E0FFF7B0FF0246FB68D31A0A2BC7
:10215C000BD97B685B6A43F400327B685A627B68FC
:10216C00052283F8202001239FE07B681B685B68B5
:10217C0003F00203002BE5D17B681B7E012B08D1F9
:10218C007B681B681A687B681B6842F080021A60C7
:10219C0007E07B681B681A687B681B6822F080026A
:1021AC001A607B685B7E012B08D17B681B681A6800
:1021BC007B681B6842F040021A6007E07B681B6872
:1021CC001A687B681B6822F040021A607B689B7E51
:1021DC00012B08D17B681B681A687B681B6842F06E
:1021EC0020021A6007E07B681B681A687B681B6812
:1021FC0022F020021A607B68DB7E012B08D17B6801
:10220C001B681A687B681B6822F010021A6007E0D2
:10221C007B681B681A687B681B6842F010021A60A6
:10222C007B681B7F012B08D17B681B681A687B6855
:10223C001B6842F008021A6007E07B681B681A688A
:10224C007B681B6822F008021A607B685B7F012B9D
:10225C0008D17B681B681A687B681B6842F0040213
:10226C001A6007E07B681B681A687B681B6822F0A1
:10227C0004021A607B689A687B68DB681A437B6887
:10228C001B691A437B685B6942EA03017B685B68E4
:10229C005A1E7B681B680A43DA617B6800225A620B
:1022AC007B68012283F82020002318461037BD4696
:1022BC0080BD80B487B000AF786039607B681B68E4
:1022CC007B617B6893F82030FB74FB7C012B03D083
:1022DC00FB7C022B40F0AA807B69D3F8003243F0E0
:1022EC0001027B69C3F800223B685B6903F01F03A2
:1022FC00012202FA03F3FB607B69D3F81C22FB6812
:10230C00DB431A407B69C3F81C223B68DB69002B5A
:10231C0023D17B69D3F80C22FB68DB431A407B6921
:10232C00C3F80C223B68DB6819043B685B689BB202
:10233C003A68526919437B69483243F832103B685A
:10234C009B6819043B681B689AB23B685B690A433B
:10235C0079694833DB000B445A603B68DB69012B1D
:10236C0022D17B69D3F80C22FB681A437B69C3F832
:10237C000C223B681B6819043B685B689BB23A688B
:10238C00526919437B69483243F832103B689B68A9
:10239C0019043B68DB689AB23B685B690A4379694C
:1023AC004833DB000B445A603B689B69002B09D116
:1023BC007B69D3F80422FB68DB431A407B69C3F8C2
:1023CC00042207E07B69D3F80422FB681A437B697B
:1023DC00C3F804223B681B69002B09D17B69D3F835
:1023EC001422FB68DB431A407B69C3F8142207E014
:1023FC007B69D3F81422FB681A437B69C3F8142257
:10240C003B681B6A012B07D17B69D3F81C22FB6844
:10241C001A437B69C3F81C227B69D3F8003223F082
:10242C0001027B69C3F80022002306E07B685B6A2B
:10243C0043F480227B685A62012318461C37BD4640
:10244C0080BC704780B584B000AF78607B6893F82F
:10245C002030DBB2012B2ED17B68022283F82020A6
:10246C007B681B681A687B681B6822F001021A6083
:10247C00FFF71AFEF86012E0FFF716FE0246FB6843
:10248C00D31A0A2B0BD97B685B6A43F400327B6846
:10249C005A627B68052283F82020012312E07B68B6
:1024AC001B685B6803F00103002BE5D17B680022FD
:1024BC005A62002306E07B685B6A43F400227B6867
:1024CC005A62012318461037BD4680BD80B489B0CE
:1024DC0000AFF860B9607A603B60FB6893F820301D
:1024EC00FB77FB681B689B68BB61FB7F012B03D0F0
:1024FC00FB7F022B40F0AD80BB6903F08063002BA7
:10250C000AD1BB6903F00063002B05D1BB6903F052
:10251C008053002B00F09580BB691B0E03F0030366
:10252C007B6101227B699A403B681A60BB689B689F
:10253C00002B0DD1BB681B685A05BB68DB68F968BA
:10254C0009681A437B6918331B010B441A600FE0AE
:10255C00BB685B68DA00BB689B681A43BB68DB68C6
:10256C00F96809681A437B6918331B010B441A601C
:10257C00FB681968BB681A697B6918331B010B442B
:10258C0004331A60BB681B7D012B11D1FB681A68E0
:10259C007B6918331B01134404331B68FA681168F8
:1025AC0043F480727B6918331B010B4404331A60AB
:1025BC007B6807331B781A067B6806331B781B0471
:1025CC001A437B6805331B781B0213437A68043269
:1025DC0012781046FA68116843EA00027B691B0105
:1025EC000B4403F5C6731A607B6803331B781A0619
:1025FC007B6802331B781B041A437B6801331B78FE
:10260C001B0213437A6812781046FA68116843EA81
:10261C0000027B691B010B4403F5C4731A60FB6851
:10262C001A687B6918331B0113441B68FA6811681C
:10263C0043F001027B6918331B010B441A60002321
:10264C000EE0FB685B6A43F40012FB685A620123DC
:10265C0006E0FB685B6A43F48022FB685A62012344
:10266C0018462437BD4680BC704780B487B000AF95
:10267C00F860B9607A603B60FB6893F82030FB75BA
:10268C00FB7D012B03D0FB7D022B40F00381BB684B
:10269C00002B0ED1FB681B68DB6803F00303002BD7
:1026AC0016D1FB685B6A43F40012FB685A62012383
:1026BC00F7E0FB681B681B6903F00303002B07D1D1
:1026CC00FB685B6A43F40012FB685A620123E8E082
:1026DC00FB681A68BB681B331B0113441B6803F0AF
:1026EC0004027B689A607B689B68002B0CD1FB68AA
:1026FC001A68BB681B331B0113441B685B0DC3F3C7
:10270C000A027B681A600BE0FB681A68BB681B3313
:10271C001B0113441B68DB0823F060427B685A6082
:10272C00FB681A68BB681B331B0113441B6803F05E
:10273C0002027B68DA60FB681A68BB681B331B01FA
:10274C00134404331B6803F00803002B03D07B688D
:10275C0008221A610BE0FB681A68BB681B331B016B
:10276C00134404331B6803F00F027B681A61FB6887
:10277C001A68BB681B331B01134404331B681B0A08
:10278C00DAB27B689A61FB681A68BB681B331B0161
:10279C00134404331B681B0C9AB27B685A61FB68A8
:1027AC001A68BB681B01134403F5DC731B68DAB2AF
:1027BC003B681A70FB681A68BB681B01134403F56D
:1027CC00DC731B681A0A3B680133D2B21A70FB68BF
:1027DC001A68BB681B01134403F5DC731B681A0CE5
:1027EC003B680233D2B21A70FB681A68BB681B01D3
:1027FC00134403F5DC731B681A0E3B680333D2B227
:10280C001A70FB681A68BB681B01134403F5DE736E
:10281C001A683B680433D2B21A70FB681A68BB683A
:10282C001B01134403F5DE731B681A0A3B6805335E
:10283C00D2B21A70FB681A68BB681B01134403F50B
:10284C00DE731B681A0C3B680633D2B21A70FB6835
:10285C001A68BB681B01134403F5DE731B681A0E60
:10286C003B680733D2B21A70BB68002B08D1FB68E7
:10287C001B68DA68FB681B6842F02002DA6007E02C
:10288C00FB681B681A69FB681B6842F020021A611E
:10289C00002306E0FB685B6A43F48022FB685A6203
:1028AC00012318461C37BD4680BC704780B485B0E8
:1028BC0000AF78607B6803F00703FB600C4BDB68B0
:1028CC00BB60BA684FF6FF031340BB60FB681A028B
:1028DC00BB68134343F0BF6343F40033BB60044A4B
:1028EC00BB68D36000BF1437BD4680BC704700BFC7
:1028FC0000ED00E080B400AF044BDB681B0A03F072
:10290C0007031846BD4680BC704700BF00ED00E0D1
:10291C0080B483B000AF03463960FB7197F9073080
:10292C00002B0ADB3B68DAB20C4997F9073012012D
:10293C00D2B20B4483F800230AE03B68DAB20849B0
:10294C00FB7903F00F03043B1201D2B20B441A764D
:10295C0000BF0C37BD4680BC704700BF00E100E0F3
:10296C0000ED00E080B489B000AFF860B9607A6027
:10297C00FB6803F00703FB61FB69C3F10703042B3E
:10298C0028BF0423BB61FB690433062B02D9FB6906
:10299C00033B00E000237B614FF0FF32BB6902FA7E
:1029AC0003F3DA43BB681A407B699A404FF0FF315E
:1029BC007B6901FA03F3D9437B680B401343184638
:1029CC002437BD4680BC704780B582B000AF7860BC
:1029DC007B68013BB3F1807F01D301230FE00A4AEE
:1029EC007B68013B53600F214FF0FF30FFF790FFE6
:1029FC00054B00229A60044B07221A6000231846EC
:102A0C000837BD4680BD00BF10E000E080B582B045
:102A1C0000AF78607868FFF749FF00BF0837BD4604
:102A2C0080BD80B586B000AF0346B9607A60FB7399
:102A3C0000237B61FFF75EFF78617A68B96878697B
:102A4C00FFF790FF024697F90F3011461846FFF733
:102A5C005FFF00BF1837BD4680BD80B582B000AFA8
:102A6C0078607868FFF7B0FF034618460837BD4614
:102A7C0080BD80B582B000AF78607B68002B01D13F
:102A8C0001230EE07B685B79DBB2002B05D17B6800
:102A9C0000221A717868FFF71FFA7B6801225A71BD
:102AAC00002318460837BD4680BD80B487B000AF00
:102ABC00F860B9607A6000233B61FB6802225A71AE
:102ACC00FB681B689A68FB681B6842F001029A60FD
:102ADC0000237B610AE07B699B00BA681A44FB689F
:102AEC001B6812681A607B6901337B617A697B68A9
:102AFC009A42F0D3FB681B681B683B61FB680122A0
:102B0C005A713B6918461C37BD4680BC70470000A3
:102B1C00F0B587B000AFF860B960C7E900230123B6
:102B2C00FB750023BB7500237B752F4B1B7E012B84
:102B3C0001D1022354E02C4B01221A764CF2503076
:102B4C0000F0A8F80346FB75FB7D002B44D1FB6815
:102B5C00012B02D101237B7507E0FB68022B02D10C
:102B6C0002237B7501E004237B750023BB752DE0EC
:102B7C00BB7D5A00BB6802EB030CBB7D1901D7E986
:102B8C000023C1F12006A1F1200022FA01F403FA7E
:102B9C0006F6344323FA00F0044323FA01F5A3B2FA
:102BAC001946604600F05AF84CF2503000F072F8BA
:102BBC000346FB750D4B1B690C4A23F00103136193
:102BCC00FB7D002B07D1BB7D0133BB75BA7D7B7DB3
:102BDC009A42CDD300E000BF034B00221A76FB7D56
:102BEC0018461C37BD46F0BD0001002000200240F5
:102BFC0080B483B000AF0023FB710D4B1B6903F055
:102C0C008003002B0DD00A4B0A4A5A60084B0A4A23
:102C1C005A60074B1B6903F08003002B01D0012382
:102C2C00FB71FB7918460C37BD4680BC704700BF62
:102C3C000020024023016745AB89EFCD80B400AF83
:102C4C00054B1B69044A43F08003136100231846AB
:102C5C00BD4680BC704700BF0020024080B483B0EA
:102C6C0000AF78600B467B80084B0022DA61084B82
:102C7C001B69074A43F0010313617B687A881A8049
:102C8C0000BF0C37BD4680BC704700BF0001002060
:102C9C000020024080B584B000AF7860FFF704FAE2
:102CAC00F86010E07B68B3F1FF3F0CD07B68002B21
:102CBC0007D0FFF7F9F90246FB68D31A7A689A42F3
:102CCC0001D2032325E0154BDB6803F00103002B35
:102CDC00E8D1124BDB6803F02003002B02D00F4B22
:102CEC002022DA600D4BDB6803F01003002B0BD1B4
:102CFC000A4BDB6903F00103002B05D1074BDB68A2
:102D0C0003F00403002B03D000F00AF8012300E0C9
:102D1C00002318461037BD4680BD00BF002002407E
:102D2C0080B483B000AF00237B60234BDB6803F0DF
:102D3C001003002B09D0214BDB6943F002031F4A1F
:102D4C00D3617B6843F010037B601B4BDB6803F0A3
:102D5C000403002B09D0194BDB6943F00103174A1C
:102D6C00D3617B6843F004037B60134BDB6903F096
:102D7C000103002B0BD0114BDB6943F004030F4A0A
:102D8C00D3610D4BDB690C4A23F00103D3617B68E3
:102D9C0040F20112934206D1074BDB69064A23F03D
:102DAC000103D36102E0044A7B68D36000BF0C3797
:102DBC00BD4680BC704700BF0020024000010020CF
:102DCC0080B584B000AF786039600123FB730023B9
:102DDC00BB602F4B1B7E012B01D1022353E02C4BEC
:102DEC0001221A767B681B68022B16D14CF25030EC
:102DFC00FFF750FF0346002B41D1012000F04CF8A7
:102E0C004CF25030FFF746FF0346FB73214B1B6916
:102E1C00204A23F00403136131E04CF25030FFF7E9
:102E2C0039FF0346002B2AD13B684FF0FF321A6062
:102E3C007B689B68BB6019E0B86800F049F84CF2FD
:102E4C005030FFF727FF0346FB73124B1B69114AE7
:102E5C0023F002031361FB7B002B03D03B68BA68A1
:102E6C001A600CE0BB6803F58063BB607B68DB68B1
:102E7C009A027B689B681344BA689A42DCD3044B71
:102E8C0000221A76FB7B18461037BD4680BD00BF6A
:102E9C00000100200020024080B483B000AF7860B5
:102EAC00094B0022DA61094B1B69084A43F0040301
:102EBC001361064B1B69054A43F04003136100BFC5
:102ECC000C37BD4680BC704700010020002002403A
:102EDC0080B483B000AF78600B4B0022DA610B4BEF
:102EEC001B690A4A43F002031361084A7B68536169
:102EFC00064B1B69054A43F04003136100BF0C37B6
:102F0C00BD4680BC704700BF00010020002002407D
:102F1C0080B48BB000AF7860396000237B620023F3
:102F2C003B6269E101227B6A02FA03F3FB613B68B5
:102F3C001B68FA691340BB61BA69FB699A4240F09D
:102F4C0058813B685B689A4A93425ED0984A934298
:102F5C0075D8984A934258D0964A93426FD8964A5D
:102F6C00934252D0944A934269D8944A93424CD09B
:102F7C00924A934263D8924A934246D0904A9342E3
:102F8C005DD8122B2AD8122B59D801A252F823F053
:102F9C0017300008F12F00080330000845300008F6
:102FAC004B3000084B3000084B3000084B30000809
:102FBC004B3000084B3000084B3000084B300008F9
:102FCC004B3000084B3000084B3000084B300008E9
:102FDC004B300008F92F00080D300008794A934255
:102FEC0013D02CE03B68DB683B6229E03B68DB6874
:102FFC0004333B6224E03B68DB6808333B621FE030
:10300C003B68DB680C333B621AE03B689B68002B27
:10301C0002D104233B6213E03B689B68012B05D172
:10302C0008233B627B68FA691A6109E008233B625A
:10303C007B68FA695A6103E000233B6200E000BF41
:10304C00BB69FF2B01D87B6801E07B6804337B6193
:10305C00BB69FF2B02D87B6A9B0002E07B6A083BB2
:10306C009B003B617B691A680F213B6901FA03F3F2
:10307C00DB431A40396A3B6901FA03F31A437B6953
:10308C001A603B685B6803F08053002B00F0B18042
:10309C004D4B9B694C4A43F0010393614A4B9B692E
:1030AC0003F00103BB60BB68484A7B6A9B08023390
:1030BC0052F82330FB607B6A03F003039B000F2262
:1030CC0002FA03F3DB43FA681340FB607B68404A67
:1030DC00934213D07B683F4A93420DD07B683E4AA3
:1030EC00934207D07B683D4A934201D1032306E00B
:1030FC00042304E0022302E0012300E000237A6AA7
:10310C0002F0030292009340FA681343FB602F49CC
:10311C007B6A9B080233FA6841F823203B685B68A2
:10312C0003F48013002B06D02D4B9A682C49BB69F5
:10313C0013438B6006E02A4B9A68BB69DB43284932
:10314C0013408B603B685B6803F40013002B06D0C4
:10315C00234BDA682249BB691343CB6006E0204B52
:10316C00DA68BB69DB431E491340CB603B685B6884
:10317C0003F40033002B06D0194B5A681849BB696D
:10318C0013434B6006E0164B5A68BB69DB4314498A
:10319C0013404B603B685B6803F48033002B21D0F9
:1031AC000F4B1A680E49BB6913430B6021E000BF3B
:1031BC00000032100000311000002210000021101D
:1031CC00000012100000111000100240000001401D
:1031DC0000080140000C01400010014000140140A7
:1031EC00000401400B4B1A68BB69DB4309491340CF
:1031FC000B607B6A01337B623B681A687B6A22FA3C
:10320C0003F3002B7FF48EAE00BF00BF2C37BD46FE
:10321C0080BC70470004014080B483B000AF78607C
:10322C000B467B8013467B707B78002B03D07A880F
:10323C007B681A6103E07B881A047B681A6100BF03
:10324C000C37BD4680BC704780B584B000AF786049
:10325C007B68002B01D1012334E07B681B684CF6A2
:10326C00CC421A607B681B6845F255521A607B6829
:10327C001B687A6852685A607B681B687A68926827
:10328C009A60FEF711FFF8600FE0FEF70DFF0246A3
:10329C00FB68D31A272B08D97B681B68DB6803F003
:1032AC000303002B01D003230CE07B681B68DB6855
:1032BC0003F00303002BE8D17B681B684AF6AA22B3
:1032CC001A60002318461037BD4680BD80B586B005
:1032DC0000AF78607B68002B01D1012372E27B6820
:1032EC001B6803F00103002B00F08780924B5B6896
:1032FC0003F00C03042B0CD08F4B5B6803F00C0316
:10330C00082B12D18C4B5B6803F48033B3F5803FF0
:10331C000BD1894B1B6803F40033002B6CD07B68FA
:10332C005B68002B68D101234CE27B685B68B3F5CA
:10333C00803F06D1804B1B687F4A43F48033136077
:10334C002EE07B685B68002B0CD17B4B1B687A4AA8
:10335C0023F480331360784B1B68774A23F4802363
:10336C0013601DE07B685B68B3F5A02F0CD1724B2A
:10337C001B68714A43F4802313606F4B1B686E4AC1
:10338C0043F4803313600BE06B4B1B686A4A23F4E5
:10339C0080331360684B1B68674A23F480231360E7
:1033AC007B685B68002B13D0FEF77EFE386108E06B
:1033BC00FEF77AFE02463B69D31A642B01D903232C
:1033CC0000E25D4B1B6803F40033002BF0D014E0DB
:1033DC00FEF76AFE386108E0FEF766FE02463B69BE
:1033EC00D31A642B01D90323ECE1534B1B6803F470
:1033FC000033002BF0D100E000BF7B681B6803F0AA
:10340C000203002B63D04C4B5B6803F00C03002BC6
:10341C000BD0494B5B6803F00C03082B1CD1464BBB
:10342C005B6803F48033002B16D1434B1B6803F00D
:10343C000203002B05D07B681B69012B01D00123F3
:10344C00C0E13D4B1B6823F0F8027B685B69DB0035
:10345C00394913430B603AE07B681B69002B20D081
:10346C00364B01221A60FEF71FFE386108E0FEF7AA
:10347C001BFE02463B69D31A022B01D90323A1E19F
:10348C002D4B1B6803F00203002BF0D02A4B1B685A
:10349C0023F0F8027B685B69DB00274913430B6060
:1034AC0015E0264B00221A60FEF7FEFD386108E09D
:1034BC00FEF7FAFD02463B69D31A022B01D903230E
:1034CC0080E11D4B1B6803F00203002BF0D17B68DD
:1034DC001B6803F00803002B3AD07B689B69002B18
:1034EC0019D0174B01221A60FEF7DEFD386108E097
:1034FC00FEF7DAFD02463B69D31A022B01D90323EE
:10350C0060E10D4B5B6A03F00203002BF0D001204D
:10351C0000F09CFA1CE00A4B00221A60FEF7C4FD76
:10352C0038610FE0FEF7C0FD02463B69D31A022B4F
:10353C0008D9032346E100BF0010024000004242BC
:10354C0080044242924B5B6A03F00203002BE9D1E8
:10355C007B681B6803F00403002B00F0A68000239B
:10356C00FB758B4BDB6903F08053002B0DD1884B23
:10357C00DB69874A43F08053D361854BDB6903F0E9
:10358C008053BB60BB680123FB75824B1B6803F443
:10359C008073002B18D17F4B1B687E4A43F48073D9
:1035AC001360FEF781FD386108E0FEF77DFD0246F1
:1035BC003B69D31A642B01D9032303E1754B1B68B8
:1035CC0003F48073002BF0D07B68DB68012B06D1F1
:1035DC006F4B1B6A6E4A43F0010313622DE07B684C
:1035EC00DB68002B0CD16A4B1B6A694A23F0010380
:1035FC001362674B1B6A664A23F0040313621CE0D8
:10360C007B68DB68052B0CD1614B1B6A604A43F06D
:10361C00040313625E4B1B6A5D4A43F001031362A1
:10362C000BE05B4B1B6A5A4A23F001031362584BA5
:10363C001B6A574A23F0040313627B68DB68002B78
:10364C0015D0FEF731FD38610AE0FEF72DFD02467C
:10365C003B69D31A41F28832934201D90323B1E07A
:10366C004B4B1B6A03F00203002BEED014E0FEF769
:10367C001BFD38610AE0FEF717FD02463B69D31AC1
:10368C0041F28832934201D903239BE0404B1B6AE1
:10369C0003F00203002BEED1FB7D012B05D13C4B3B
:1036AC00DB693B4A23F08053D3617B68DB69002BD9
:1036BC0000F08780364B5B6803F00C03082B61D05D
:1036CC007B68DB69022B46D1334B00221A60FEF774
:1036DC00EBFC386108E0FEF7E7FC02463B69D31AC5
:1036EC00022B01D903236DE0294B1B6803F00073F7
:1036FC00002BF0D17B681B6AB3F5803F08D1244BBB
:10370C005B6823F400327B689B68214913434B6050
:10371C001F4B5B6823F474127B68196A7B685B6AC5
:10372C000B431B4913434B601B4B01221A60FEF7E2
:10373C00BBFC386108E0FEF7B7FC02463B69D31AC4
:10374C00022B01D903233DE0114B1B6803F00073DE
:10375C00002BF0D035E0104B00221A60FEF7A4FCD1
:10376C00386108E0FEF7A0FC02463B69D31A022B35
:10377C0001D9032326E0064B1B6803F00073002BD2
:10378C00F0D11EE07B68DB69012B07D1012319E026
:10379C000010024000700040600042420B4B5B681E
:1037AC00FB60FB6803F480327B681B6A9A4206D18B
:1037BC00FB6803F470127B685B6A9A4201D00123A8
:1037CC0000E0002318461837BD4680BD00100240AB
:1037DC0080B584B000AF786039607B68002B01D174
:1037EC000123D0E06A4B1B6803F007033A689A4246
:1037FC0010D9674B1B6823F0070265493B681343DC
:10380C000B60634B1B6803F007033A689A4201D0C4
:10381C000123B8E07B681B6803F00203002B20D067
:10382C007B681B6803F00403002B05D0594B5B68C5
:10383C00584A43F4E06353607B681B6803F0080349
:10384C00002B05D0534B5B68524A43F460535360D2
:10385C00504B5B6823F0F0027B689B684D49134327
:10386C004B607B681B6803F00103002B40D07B6826
:10387C005B68012B07D1474B1B6803F40033002B0B
:10388C0015D101237FE07B685B68022B07D1414B8C
:10389C001B6803F00073002B09D1012373E03D4B2F
:1038AC001B6803F00203002B01D101236BE0394BA1
:1038BC005B6823F003027B685B68364913434B60FB
:1038CC00FEF7F2FBF8600AE0FEF7EEFB0246FB683F
:1038DC00D31A41F28832934201D9032353E02D4B82
:1038EC005B6803F00C027B685B689B009A42EBD12F
:1038FC00274B1B6803F007033A689A4210D2244BFB
:10390C001B6823F0070222493B6813430B60204BD2
:10391C001B6803F007033A689A4201D0012332E096
:10392C007B681B6803F00403002B08D0194B5B6801
:10393C0023F4E0627B68DB68164913434B607B68B9
:10394C001B6803F00803002B09D0124B5B6823F4AF
:10395C0060527B681B69DB000E4913434B6000F01F
:10396C0021F802460B4B5B681B0903F00F030A4955
:10397C00CB5C22FA03F3094A1360094B1B68184607
:10398C00FEF750FB002318461037BD4680BD00BF24
:10399C0000200240001002402C3D000820000020B6
:1039AC002400002080B487B000AF0023FB6000230C
:1039BC00BB6000237B6100237B6000233B611E4BBB
:1039CC005B68FB60FB6803F00C03042B02D0082B34
:1039DC0003D027E0194B3B6127E0FB689B0C03F0FD
:1039EC000F03174AD35C7B60FB6803F48033002B16
:1039FC0010D0114B5B685B0C03F00103114AD35CD4
:103A0C00BB607B680D4A03FB02F2BB68B2FBF3F3AD
:103A1C007B6104E07B680C4A02FB03F37B617B69EE
:103A2C003B6102E0054B3B6100BF3B6918461C370C
:103A3C00BD4680BC704700BF0010024000127A00E7
:103A4C003C3D00084C3D000800093D0080B485B0A9
:103A5C0000AF78600A4B1B680A4AA2FB03235B0A7F
:103A6C007A6802FB03F3FB6000BFFB685A1EFA6026
:103A7C00002BF9D100BF00BF1437BD4680BC704786
:103A8C0020000020D34D621003460244934200D123
:103A9C00704703F8011BF9E770B500260C4D0D4C6F
:103AAC00641BA410A64209D100F028F800260A4D88
:103ABC000A4C641BA410A64205D170BD55F8043BFA
:103ACC0098470136EEE755F8043B98470136F2E784
:103ADC00503D0008503D0008503D0008543D000882
:103AEC000A44914200F1FF3300D1704710B511F830
:103AFC00014B914203F8014FF9D110BDF8B500BF4D
:103B0C00F8BC08BC9E467047F8B500BFF8BC08BCB2
:043B1C009E4670470A
:103B2000637C777BF26B6FC53001672BFED7AB767A
:103B3000CA82C97DFA5947F0ADD4A2AF9CA472C025
:103B4000B7FD9326363FF7CC34A5E5F171D8311592
:103B500004C723C31896059A071280E2EB27B275B3
:103B600009832C1A1B6E5AA0523BD6B329E32F842B
:103B700053D100ED20FCB15B6ACBBE394A4C58CF23
:103B8000D0EFAAFB434D338545F9027F503C9FA8F7
:103B900051A3408F929D38F5BCB6DA2110FFF3D2C5
:103BA000CD0C13EC5F974417C4A77E3D645D197379
:103BB00060814FDC222A908846EEB814DE5E0BDB73
:103BC000E0323A0A4906245CC2D3AC629195E479AA
:103BD000E7C8376D8DD54EA96C56F4EA657AAE0804
:103BE000BA78252E1CA6B4C6E8DD741F4BBD8B8A9F
:103BF000703EB5664803F60E613557B986C11D9E05
:103C0000E1F8981169D98E949B1E87E9CE5528DF7B
:103C10008CA1890DBFE6426841992D0FB054BB16A7
:103C200052096AD53036A538BF40A39E81F3D7FB31
:103C30007CE339829B2FFF87348E4344C4DEE9CB7B
:103C4000547B9432A6C2233DEE4C950B42FAC34EF0
:103C5000082EA16628D924B2765BA2496D8BD125A6
:103C600072F8F66486689816D4A45CCC5D65B6924A
:103C70006C704850FDEDB9DA5E154657A78D9D84EE
:103C800090D8AB008CBCD30AF7E45805B8B345060E
:103C9000D02C1E8FCA3F0F02C1AFBD0301138A6B28
:103CA0003A9111414F67DCEA97F2CFCEF0B4E67358
:103CB00096AC7422E7AD3585E2F937E81C75DF6E06
:103CC00047F11A711D29C5896FB7620EAA18BE1B6C
:103CD000FC563E4BC6D279209ADBC0FE78CD5AF412
:103CE0001FDDA8338807C731B11210592780EC5F58
:103CF00060517FA919B54A0D2DE57A9F93C99CEFB4
:103D0000A0E03B4DAE2AF5B0C8EBBB3C83539961B4
:103D1000172B047EBA77D626E169146355210C7DF2
:103D20008D01020408102040801B360000000000B6
:103D3000000000000102030406070809020304054D
:103D4000060708090A0B0C0D0E0F101001020000E7
:043D50003101000835
:043D54000D01000855
:103D58002B7E151628AED2A6ABF7158809CF4F3C97
:103D6800000102030405060708090A0B0C0D0E0FD3
:0C3D78000024F400100000000100000016
:0400000508001F7D53
:00000001FF
